:10000000382C012021140100B5180500D913010076
:10001000D9130100D9130100D9130100D91301002C
:10002000000000000000000000000000B902010014
:10003000D9130100000000000D020100D9130100D6
:10004000B9030100B9030100B9030100B9030100BC
:10005000B9030100B9030100B9030100B9030100AC
:10006000B9030100B9030100B9030100B90301009C
:10007000B9030100B9030100B9030100B90301008C
:10008000B9030100B9030100B9030100B90301007C
:10009000B9030100B9030100B9030100B90301006C
:1000A000B9030100B9030100B9030100B90301005C
:1000B000B9030100B9030100B9030100B90301004C
:1000C000B9030100B9030100B9030100B90301003C
:1000D000B9030100B9030100B9030100B90301002C
:1000E000B9030100B9030100B9030100B90301001C
:1000F000B9030100B9030100B9030100B90301000C
:10010000B9030100B9030100B9030100B9030100FB
:10011000B9030100B9030100B9030100B9030100EB
:10012000B9030100B9030100B9030100B9030100DB
:10013000B9030100B9030100B9030100B9030100CB
:10014000B9030100B9030100B9030100B9030100BB
:04015000B9030100EE
:04015400FFFFFFFFAB
:1001580081F0004102E000BF83F0004330B54FEA70
:1001680041044FEA430594EA050F08BF90EA020FDD
:100178001FBF54EA000C55EA020C7FEA645C7FEA70
:10018800655C00F0E2804FEA5454D4EB5555B8BF93
:100198006D420CDD2C4480EA020281EA030382EA04
:1001A800000083EA010180EA020281EA0303362D96
:1001B80088BF30BD11F0004F4FEA01314FF4801C69
:1001C8004CEA113102D0404261EB410113F0004F7B
:1001D8004FEA03334CEA133302D0524263EB430332
:1001E80094EA050F00F0A780A4F10104D5F1200ED0
:1001F8000DDB02FA0EFC22FA05F2801841F100012B
:1002080003FA0EF2801843FA05F359410EE0A5F1FE
:1002180020050EF1200E012A03FA0EFC28BF4CF02F
:10022800020C43FA05F3C01851EBE37101F00045E5
:1002380007D54FF0000EDCF1000C7EEB00006EEBF2
:100248000101B1F5801F1BD3B1F5001F0CD349087C
:100258005FEA30004FEA3C0C04F101044FEA4452D3
:1002680012F5800F80F09A80BCF1004F08BF5FEA5A
:10027800500C50F1000041EB045141EA050130BD3A
:100288005FEA4C0C404141EB0101013C28BFB1F54C
:10029800801FE9D291F0000F04BF01460020B1FA97
:1002A80081F308BF2033A3F10B03B3F120020CDA6A
:1002B8000C3208DD02F1140CC2F10C0201FA0CF048
:1002C80021FA02F10CE002F11402D8BFC2F1200CAD
:1002D80001FA02F120FA0CFCDCBF41EA0C01904063
:1002E800E41AA2BF01EB0451294330BD6FEA0404AC
:1002F8001F3C1CDA0C340EDC04F11404C4F1200297
:1003080020FA04F001FA02F340EA030021FA04F3A8
:1003180045EA030130BDC4F10C04C4F1200220FAFF
:1003280002F001FA04F340EA0300294630BD21FA3D
:1003380004F0294630BD94F0000F83F4801306BF03
:1003480081F480110134013D4EE77FEA645C18BFF7
:100358007FEA655C29D094EA050F08BF90EA020F8E
:1003680005D054EA000C04BF1946104630BD91EA86
:10037800030F1EBF0021002030BD5FEA545C05D189
:100388004000494128BF41F0004130BD14F58004C8
:100398003CBF01F5801130BD01F0004545F0FE413C
:1003A80041F470014FF0000030BD7FEA645C1ABF71
:1003B800194610467FEA655C1CBF0B46024650EAA8
:1003C800013406BF52EA033591EA030F41F40021D4
:1003D80030BD00BF90F0000F04BF0021704730B55A
:1003E8004FF4806404F132044FF000054FF000012F
:1003F80050E700BF90F0000F04BF0021704730B5F0
:100408004FF4806404F1320410F0004548BF4042C4
:100418004FF000013EE700BF42004FEAE2014FEA19
:1004280031014FEA02701FBF12F07F4393F07F4FF4
:1004380081F06051704732F07F4208BF704793F0F7
:100448007F4F04BF41F40021704730B54FF460740A
:1004580001F0004521F000411CE700BF50EA01020D
:1004680008BF704730B54FF000050AE050EA0102B6
:1004780008BF704730B511F0004502D5404261EB26
:1004880041014FF4806404F132045FEA915C3FF467
:10049800D8AE4FF003025FEADC0C18BF03325FEA04
:1004A800DC0C18BF033202EBDC02C2F1200300FAB5
:1004B80003FC20FA02F001FA03FE40EA0E0021FADA
:1004C80002F11444BDE600BF70B54FF0FF0C4CF4C8
:1004D800E06C1CEA11541DBF1CEA135594EA0C0F7A
:1004E80095EA0C0F00F0DEF82C4481EA030621EAB5
:1004F8004C5123EA4C5350EA013518BF52EA0335F0
:1005080041F4801143F4801338D0A0FB02CE4FF0A1
:100518000005E1FB02E506F00042E0FB03E54FF0D1
:100528000006E1FB03569CF0000F18BF4EF0010EC9
:10053800A4F1FF04B6F5007F64F5407404D25FEAC5
:100548004E0E6D4146EB060642EAC62141EA555178
:100558004FEAC52040EA5E504FEACE2EB4F1FD0CBA
:1005680088BFBCF5E06F1ED8BEF1004F08BF5FEA38
:10057800500E50F1000041EB045170BD06F00046EA
:1005880046EA010140EA020081EA0301B4EB5C0497
:10059800C2BFD4EB0C0541EA045170BD41F480118F
:1005A8004FF0000E013C00F3AB8014F1360FDEBFB4
:1005B800002001F0004170BDC4F10004203C35DA90
:1005C8000C341BDC04F11404C4F1200500FA05F313
:1005D80020FA04F001FA05F240EA020001F00042B4
:1005E80021F0004110EBD37021FA04F642EB06012A
:1005F8005EEA430E08BF20EAD37070BDC4F10C0454
:10060800C4F1200500FA04F320FA05F001FA04F217
:1006180040EA020001F0004110EBD37041F1000103
:100628005EEA430E08BF20EAD37070BDC4F120050E
:1006380000FA05F24EEA020E20FA04F301FA05F276
:1006480043EA020321FA04F001F0004121FA04F21E
:1006580020EA020000EBD3705EEA430E08BF20EAEE
:10066800D37070BD94F0000F0FD101F00046400028
:1006780041EB010111F4801F08BF013CF7D041EAAA
:10068800060195F0000F18BF704703F000465200AE
:1006980043EB030313F4801F08BF013DF7D043EA7F
:1006A8000603704794EA0C0F0CEA135518BF95EA35
:1006B8000C0F0CD050EA410618BF52EA4306D1D1BC
:1006C80081EA030101F000414FF0000070BD50EADB
:1006D800410606BF1046194652EA430619D094EA65
:1006E8000C0F02D150EA013613D195EA0C0F05D14F
:1006F80052EA03361CBF104619460AD181EA0301A3
:1007080001F0004141F0FE4141F470014FF000005A
:1007180070BD41F0FE4141F4780170BD70B54FF0F5
:10072800FF0C4CF4E06C1CEA11541DBF1CEA135575
:1007380094EA0C0F95EA0C0F00F0A7F8A4EB050457
:1007480081EA030E52EA03354FEA013100F088804E
:100758004FEA03334FF0805545EA131343EA126317
:100768004FEA022245EA111545EA10654FEA0026CC
:100778000EF000419D4208BF964244F1FD0404F585
:10078800407402D25B084FEA3202B61A65EB0305E1
:100798005B084FEA32024FF480104FF4002CB6EB9E
:1007A800020E75EB030E22BFB61A754640EA0C001E
:1007B8005B084FEA3202B6EB020E75EB030E22BF5E
:1007C800B61A754640EA5C005B084FEA3202B6EB9F
:1007D800020E75EB030E22BFB61A754640EA9C005E
:1007E8005B084FEA3202B6EB020E75EB030E22BF2E
:1007F800B61A754640EADC0055EA060E18D04FEAEC
:10080800051545EA16754FEA06164FEAC30343EA8B
:1008180052734FEAC2025FEA1C1CC0D111F4801F58
:100828000BD141EA00014FF000004FF0004CB6E751
:1008380011F4801F04BF01430020B4F1FD0C88BFF0
:10084800BCF5E06F3FF6AFAEB5EB030C04BFB6EBFB
:10085800020C5FEA500C50F1000041EB045170BDEE
:100868000EF0004E4EEA113114EB5C04C2BFD4EB1B
:100878000C0541EA045170BD41F480114FF0000E9F
:10088800013C90E645EA060E8DE60CEA135594EA1B
:100898000C0F08BF95EA0C0F3FF43BAF94EA0C0F1E
:1008A8000AD150EA01347FF434AF95EA0C0F7FF493
:1008B80025AF104619462CE795EA0C0F06D152EAE7
:1008C80003353FF4FDAE1046194622E750EA4106CB
:1008D80018BF52EA43067FF4C5AE50EA41047FF4DC
:1008E8000DAF52EA43057FF4EBAE12E74FEA41023F
:1008F800B2F1E04324BFB3F5001CDCF1FE5C0DD976
:1009080001F0004C4FEAC0024CEA5070B2F1004FBF
:1009180040EB830008BF20F00100704711F0804FC2
:1009280021D113F13872BCBF01F00040704741F487
:1009380080114FEA5252C2F11802C2F1200C10FA8B
:100948000CF320FA02F018BF40F001004FEAC1236F
:100958004FEAD32303FA0CFC40EA0C0023FA02F313
:100968004FEA4303CCE77FEA625307D150EA0133E9
:100978001EBF4FF0FE4040F44000704701F00040B9
:1009880040F0FE4040F40000704700BF7BB972B9E8
:100998000029BEBF00204FF0004106E008BF002834
:1009A8001CBF6FF000414FF0FF3000F075B8ADF19B
:1009B800080C6DE904CE002909DB002B1ADB00F0D6
:1009C8006AF9DDF804E0DDE9022304B0704740422B
:1009D80061EB4101002B1BDB00F05DF9DDF804E061
:1009E800DDE9022304B0404261EB4101524263EB6E
:1009F80043037047524263EB430300F04CF9DDF8C0
:100A080004E0DDE9022304B0404261EB4101704794
:100A1800524263EB430300F03EF9DDF804E0DDE900
:100A2800022304B0524263EB4303704753B94AB9F7
:100A3800002908BF00281CBF4FF0FF314FF0FF30DE
:100A480000F02AB8ADF1080C6DE904CE00F023F9E6
:100A5800DDF804E0DDE9022304B07047D0B50022D8
:100A68000B4B06460F46FFF72FFD00F09FF8044694
:100A7800FFF7B0FC0022074BFFF726FD02460B46A6
:100A880030463946FFF768FB00F090F82146D0BDA4
:100A98000000F03D0000F041704700BF4FF0FF3C00
:100AA80006E000BF4FF0010C02E000BF4FF0010C60
:100AB8004DF804CD4FEA410C7FEA6C5C4FEA430CD9
:100AC80018BF7FEA6C5C1BD001B050EA410C0CBF28
:100AD80052EA430C91EA030F02BF90EA020F00208A
:100AE800704710F1000F91EA030F58BF994208BFF1
:100AF80090422CBFD8176FEAE37040F001007047AE
:100B08004FEA410C7FEA6C5C02D150EA013C07D104
:100B18004FEA430C7FEA6C5CD6D152EA033CD3D04F
:100B28005DF8040B704700BF8446104662468C4649
:100B38001946634600E000BF01B5FFF7B7FF00287C
:100B480048BF10F1000F01BD4DF808EDFFF7F4FFA5
:100B58000CBF012000205DF808FB00BF4DF808ED30
:100B6800FFF7EAFF34BF012000205DF808FB00BF53
:100B78004DF808EDFFF7E0FF94BF012000205DF875
:100B880008FB00BF4DF808EDFFF7CEFF94BF01202A
:100B980000205DF808FB00BF4DF808EDFFF7C4FF23
:100BA80034BF012000205DF808FB00BF4A0011D2C5
:100BB80012F5001211D20DD56FF47873B3EB6252AF
:100BC8000ED44FEAC12343F0004343EA505323FABB
:100BD80002F070474FF00000704750EA013002D130
:100BE8004FF0FF3070474FF0000070474FEA410C5C
:100BF8007FEA6C5C02D150EA013C0AD14FEA430C0F
:100C08007FEA6C5C02D152EA033C02D14FF000004B
:100C180070474FF0010070474FEA410212F5001289
:100C280015D211D56FF47873B3EB625212D94FEA2B
:100C3800C12343F0004343EA505311F0004F23FA15
:100C480002F018BF404270474FF00000704750EA6A
:100C5800013005D111F0004008BF6FF00040704727
:100C68004FF00000704700BF38B50022002304464B
:100C78000D46FFF773FF28B920462946BDE83840DE
:100C8800FFF7ECBE204605F10041FFF7E7FE4042C2
:100C980061EB410138BD2DE9F04786468C46084690
:100CA800089E154674461946002B40F0C1808542BF
:100CB800B2FA82F245D94AB1C2F1200300FA02FC25
:100CC800954094402EFA03F343EA0C0C4FEA154E74
:100CD800A8B2230CBCFBFEF80EFB18CC08FB00F9ED
:100CE80043EA0C43994528D9EB1808F1FF3704D299
:100CF800994502D9A8F102072B44A3EB0903A4B232
:100D0800B3FBFEFC0EFB1C330CFB00F044EA03446F
:100D1800A04214D92C190CF1FF3304D2A04202D9F5
:100D2800ACF102032C44241A43EA07401EB1D44014
:100D3800002334607360BDE8F0874746DDE763460B
:100D4800F1E792BB431B01214FEA154EAFB2200CCD
:100D5800B3FBFEFC0EFB1C330CFB07F840EA034315
:100D6800984561D9EB180CF1FF3004D2984502D9A7
:100D7800ACF102002B44A3EB0803A4B2B3FBFEFCC6
:100D88000EFB1C330CFB07F744EA0344A7424DD97A
:100D98002C190CF1FF3304D2A74202D9ACF102039B
:100DA8002C44E41B43EA0040C0E7C2F1200395400D
:100DB800944020FA03F12EFA03F34FEA154E9040BF
:100DC800AFB20343B1FBFEFC0EFB1C10190C0CFB6D
:100DD80007F841EA0041884522D969180CF1FF302B
:100DE80004D2884502D9ACF102002944A1EB0801DC
:100DF8009BB2B1FBFEFC0EFB1C110CFB07F743EA90
:100E080001439F420ED9EB180CF1FF3104D29F42E7
:100E180002D9ACF102012B44DB1B41EA004193E704
:100E28006046E3E76146F7E76046A4E76346B8E74C
:100E3800834206D916B9002108467CE7C6E900E0D6
:100E4800F9E7B3FA83F78FB9834201D3724508D81B
:100E5800BEEB020460EB030301209C461EB900218F
:100E680069E73846FAE7C6E9004CF8E7C7F1200C0D
:100E7800BB400EFA07F522FA0CF42EFA0CF1BA4030
:100E88001C4320FA0CF3B8404FEA144901431FFAF7
:100E980084FEB3FBF9F809FB18300B0C08FB0EFABB
:100EA80043EA00439A4540D9E31808F1FF3004D2D9
:100EB8009A4502D9A8F102002344A3EB0A0389B298
:100EC800B3FBF9F809FB183308FB0EFE41EA0341AE
:100ED8008E452CD9611808F1FF3304D28E4502D90A
:100EE800A8F10203214443EA0040A1EB0E01A0FB54
:100EF80002984145CE46434602D306D14D4504D219
:100F08000138B9EB020E68EB0403002EA7D0B5EB4D
:100F18000E0261EB030101FA0CFC22FA07F3F94017
:100F28004CEA0303C6E9003199E74046C5E7434662
:100F3800D9E770B4840746D04C1E002941D0D5B2F9
:100F4800034602E0611EE4B30C4603F8015B99070F
:100F5800F8D1032C2ED9D5B245EA05250F2C45EA40
:100F6800054519D9264603F11001103E0F2E41F808
:100F7800105C41F80C5C41F8085C41F8045C01F134
:100F88001001F2D8A4F1100121F00F0104F00F04B0
:100F98001031032C0B440DD91E4621460439032970
:100FA80046F8045BFAD8211F21F0030104310B44F1
:100FB80004F003042CB1D2B21C4403F8012BA34261
:100FC800FBD170BC70470C460346C2E710F8012BF2
:100FD80011F8013B012A28BF9A42F7D0D01A70476E
:100FE800034613F8012B002AFBD1181A0138704761
:100FF8002DE9F04D2DED028B88B000AF0546406815
:101008008368DB683A219847041EC0F23381686818
:1010180083681B6907F118021E219847041EC0F255
:101028002981686883681B6907F1100220219847A5
:10103800041EC0F21F81686883681B6907F10802F3
:1010480021219847041EC0F21581914B1B6803F0BB
:101058000703022B40F215812E68B869FFF7CAF919
:1010680004460D46F869FFF7C5F987A3D3E90023BD
:10107800FFF754FB02460B4620462946FFF76EF859
:1010880000220023FFF76AF841EC180B3869FFF7D4
:10109800B1F904460D467869FFF7ACF97AA3D3E9AC
:1010A8000023FFF73BFB02460B4620462946FFF785
:1010B80055F80022774BFFF707FA00220023FFF7C5
:1010C8004DF882468B46B868FFF794F904460D46FA
:1010D800F868FFF78FF96CA3D3E90023FFF71EFB2D
:1010E80002460B4620462946FFF738F80022694B8E
:1010F800FFF7EAF900220023FFF730F841EC170B5D
:101108006D4600233B7102237B711C230C2213F0D4
:10111800070F02D10832083304E004320433F6E73B
:101128000432043313F0070FFAD10832083301E010
:101138000432043313F00704FAD102F10A0C6346AF
:10114800213222F00702ADEB020D6A46BCF1000F16
:101158007AD002F11008BCF1030F73D9B8F1000F6F
:1011680004D0BCF1040F01DD4B4B536100233B70ED
:1011780002237B70B8F1000F03D0BCF1080F00DD2B
:1011880096611C210C200B4611F0070F0DD18646E5
:10119800B8F1000F05D0604503DA08EB000181EDD6
:1011A800008B0EF1080E083305E004300431EAE73D
:1011B8000EF1040E0433194613F0070FF8D17646E2
:1011C800B8F1000F05D0E64503DA08EB0E03C3E9D2
:1011D80000AB083601F1080301E00436043313F0CC
:1011E800070FFAD13346B8F1000F05D0664503DA88
:1011F80008EB060181ED007B03F108060A33B8F11C
:10120800000F0DD008EB0601002007E000F1200ECA
:10121800BE441EF820EC01F801EB01300128F5D995
:101228009C4501DA6FF01B03B8F1000F0CD0C6F330
:1012380087063E7100217971B9710121F9717868C9
:10124800106101E06FF01B0300216FF300016FF3E1
:1012580041016FF382016FF3C501032060F3881128
:1012680063F353216FF31F511032002308480AF02B
:10127800DDFBAD4620462037BD46BDEC028BBDE800
:10128800F08D0024F6E700BF0000000080842E41A6
:10129800EC0F002000408F40BC0506000000000055
:1012A80010B5082140F6014013F000F8D8B1044603
:1012B80008210C3028F08EF802460F4B93F888303E
:1012C80013F0010F0BD10D484FF0005151F07CFD88
:1012D8000022214640F6014013F03AF810BD04A15F
:1012E800D1E90001F2E76FF06800F7E7AFF300809B
:1012F8009088000200800020000000201088000272
:101308002DE9F04786B08046894617461E469DF867
:1013180038A03A223449384656F0A0FF04460F2236
:101328003249304656F09AFF0023049305939C42B5
:1013380020DB0546002824DB04AB82B2A1B2484674
:1013480056F083FF034618B310F1160F02D1BAF115
:10135800000F0CD00193254B53F825300093224BF6
:1013680053F82430224A012140464FF080F806B055
:10137800BDE8F0873B461F4A012140464FF077F809
:10138800F5E733461C4A012140464FF070F8EEE776
:10139800D9F800900498FFF72DF806460F460598EF
:1013A800FFF728F80EA3D3E90023FFF7B7F90246A1
:1013B8000B4630463946FEF7D1FECDE902010B4B0C
:1013C80053F825300193084B53F8243000934B46CB
:1013D8000A4A022140464FF04AF8C8E7AFF30080B6
:1013E8000000000080842E41B80900207C090020FC
:1013F8007C9806004C98060064980600AC98060095
:1014080030B589B00C9D002839D00446002943D056
:10141800D0F8200110F0010F4BD10020C4F80801CA
:10142800C4F80C0104F58870C4F81001C4F814015C
:1014380004F58C70C4F81801C4F81C01002D45D0BF
:101448002879002844D10120C4F820019FED227B8F
:101458008DED067B00200490039302900190009488
:101468001F4B204637F030F825B1296811B12046C6
:1014780036F0F6FD20465BF078FA09B030BD194C1D
:101488004FF432732246184918484DF0B0FD4FF416
:101498003271204605F0BEFC124C40F2C9232246A8
:1014A800134912484DF0A3FD40F2C921204605F02A
:1014B800B1FC0C4C40F2CA2322460E490B484DF0B1
:1014C80096FD40F2CA21204605F0A4FC0120BBE7A6
:1014D80040F20110B8E700BFFFFFFFFFFFFFFFFF6B
:1014E800019403000CDE0600D4DE060050EE050071
:1014F800DCDE0600E4DE06002DE9F04F1F469DB055
:1015080000230C4682460F9218934FF00008984B20
:101518004FF000091D682846FFF762FD2246834602
:10152800179213782B2B3BD02CD80D2B26D8082BB1
:1015380026D8002B2FD000230D93179E3378302BFD
:1015480074D1737803F0DF03582B65D10D9B17A96D
:10155800884A5046019318AB0297009319AB4BF099
:10156800C9FC10F00705044635D0062D1AD10F9B8B
:101578000BB101361E6042464B4637E0202BDAD1CC
:101588000132CDE72D2BD6D101230D93531C179390
:101598005378002BD1D10F9B002BECD01C60EAE7CD
:1015A8000023F2E7189A3AB135211AA85CF0ECFA50
:1015B800189950464BF05EFF013D199A042D06D844
:1015C800DFE805F0190322251900DDE91A8921074A
:1015D80001D549F000490F9B13B1179B0F9A13606F
:1015E8000D9B002BC7D0424609F1004343EC102B5A
:1015F8001DB0BDE8F08FDDE91A8302F2334223F40F
:10160800801343EA0259E2E7DFF86C91DFE76FF0F5
:1016180000494FF0FF38DAE7179B5A1C17925B789E
:10162800302BF9D0002BD6D0012300E0002300276F
:1016380004930A22179BCDE905770A931798067831
:10164800A6F13003D9B2092924D95A4629465BF0B4
:101658000DFF00282DD000203246059D8346034605
:10166800652A01D0452A13D11DB9049A024392D0A4
:101678000025179C621C179262782B2A6ED02D2A9F
:1016880072D04FF0000CA2F1300109297AD91794D1
:10169800002699E00599013008291790D7BF0699C7
:1016A80002FB073702FB01330693059B01330593C1
:1016B800C4E7179B03EB0B02179213F80B20059B4B
:1016C800A3B383461D46A2F13003092B12D9012387
:1016D800C6E7179B01305A1C17925A78302AF8D05F
:1016E800A2F13103082B00F2EF8483460020179BF8
:1016F80005460A93303A00F1010311D09B4400EBF0
:10170800050C2B460A21634512D12B180135082BED
:10171800054419DC06990A2303FB012306930023D9
:10172800179A1846511C17915278CCE70598D5E7B7
:10173800082B03F1010303DC069E4E430696E2E7FD
:10174800102BD8BF4F43DEE70F2BDCBF0A2303FB68
:101758000727E4E74FF0000B012386E74FF0000C62
:10176800A21C1792A2788EE74FF0010CF8E700BF91
:10177800300E0700BC0D07000000F07F179A511CBF
:1017880017915278302AF9D0A2F1310108293FF691
:101798007FAF303A0792179A0C92179A561C1796F1
:1017A8005278A2F1300EBEF1090F38D90C99761A89
:1017B800082E44F61F6603DC07998E42A8BF0E4622
:1017C800BCF1000F00D07642002D4FD10499084398
:1017D8007FF401AF002B7FF4DEAE692A29D026DC26
:1017E800492A26D04E2A7FF4D6AE9B4917A85CF02A
:1017F80049F800283FF4CFAE179B1B78282B2FD130
:101808001AAA964917A85CF051F8052828D11B9BFD
:10181800DDF8688043F0FF4949F4E009DBE6079EFC
:101828000A2101FB0621A1F130020792B5E76E2AD1
:10183800D9E78B4917A85CF025F800283FF4ABAE30
:10184800179B17A88749013B17935CF01BF810B941
:10185800179B01331793DFF81C924FF00008BAE684
:10186800814801F079FA59EC108BB4E6A6EB0B032A
:1018780006982C460C93059B002B08BF2B46102D71
:101888000593A8BF1024FEF7A5FD092D80468946BB
:1018980013DC0C9B002B3FF49EAE0C9B78DD162BC3
:1018A80045DC7249424601EBC3014B46D1E90001D0
:1018B800FEF70AFE804689468DE66C4B03EBC403AF
:1018C80053E91223FEF700FE804689463846FEF7A4
:1018D80081FD02460B4640464946FEF73FFC0F2D68
:1018E80080468946D5DD2C1B0C9B1C44002C25DC2E
:1018F80000F0A280644214F00F020AD05B4B40460D
:10190800494603EBC203D3E90023FEF707FF8046ED
:101918008946241100F090801F2C40F3B1802223C7
:101928004FF000084FF00009CAF8003053E6C5F13F
:1019380025030C9A934219DA2C1B144414F00F0354
:101948000AD04A49424601EBC3014B46D1E900019E
:10195800FEF7BAFD8046894634F00F046CD0B4F522
:101968009A7F41DD2223CAF8003074E7C5F10F05DC
:101978003E4C42464B4604EBC501D1E90001FEF757
:10198800A3FD0C9B5D1B04EBC504D4E900238FE782
:101998001633A8DBABEB0602344B4046494603EB53
:1019A800C203D3E90023FEF7B9FE83E700230693B9
:1019B8002223DFF8C0904FF00008CAF800301899C9
:1019C80050464BF057FD069950464BF053FD05998C
:1019D80050464BF04FFD109950464BF04BFD079980
:1019E80050464BF047FDF6E5002324114046494692
:1019F8001F4F0493012C22DC0BB180468946049BBF
:101A0800A9F154791A49424601EBC3014B46D1E981
:101A18000001FEF759FD174B0A4680460B40164950
:101A28008B429FD8A1F580118B4286BFDFF84C907E
:101A38004FF0FF3802F15479002304934BE0E2079A
:101A480004D5D7E90023FEF73FFD0123049A64106B
:101A5800083701320492CDE7B1560700A80D0700F8
:101A6800A9560700DB5607009155070098E80500BE
:101A780070E805000000F07F0000A07CFFFFEF7F0A
:101A880014F0100340464946AA4F18BF6A2304932E
:101A98000023E20704D5D7E90023FEF715FD01234B
:101AA800641007F10807F4D10BB180468946049BFE
:101AB80043B1C9F30A524946C2F16B03002B4EDC0D
:101AC8006A2304930022002340464946FFF73CF866
:101AD80000287FF424AF069B5046059A00932B46B6
:101AE8000A994BF031FD109000283FF43BAF0C9B56
:101AF800ABEB060B002BB4BF5B46002311930C9B8A
:101B080023EAE3731393002307930593109B50462E
:101B180059684BF06FFC069000283FF449AF109BC2
:101B28000C301A6903F10C01023292005BF00BFBD6
:101B38001AAA19A9504649EC108BCDE90A894BF02D
:101B4800DFFF189000283FF433AF012150464BF0D7
:101B580045FD03460590D0B90023059328E71F2BC0
:101B68000EDD342B4FF00008DBBF4FF0FF33C2F11E
:101B78004B024FF05C799340D8BF03EA01099FE715
:101B88004FF0FF3202FA03F303EA080898E7199CBA
:101B98001A9A002CA9BF119B139BE718139EB8BF74
:101BA8001E1B049BB8BF119FE41A634B1444C2F177
:101BB8003602013C9C4280F2B0801B1B01251F2B82
:101BC800A2EB0302CDBFC4F17F449D40002404F57D
:101BD8007F04C2BF04F57B44E23405FA04F407EB42
:101BE800020B049B16445F451E443B46A8BF5B4658
:101BF800B342A8BF3346002BC2BFABEB030BF61AA8
:101C0800FF1A119B002B16DD1A46059950464BF01A
:101C1800A5FD059000289FD00146189A50464BF024
:101C2800F3FC0E9000283FF4C3AE189950464BF0D1
:101C380021FC0E9B1893BBF1000F71DC0C9B002B51
:101C480008DD139A504606994BF088FD0690002847
:101C58003FF4ACAE002E08DD3246069950464BF0F4
:101C6800D7FD069000283FF4A1AE002F08DD3A46C4
:101C7800059950464BF0CCFD059000283FF498AEEE
:101C8800069A504618994BF02FFE079000283FF40B
:101C98008FAEC36805990E930023C3605BF027FFDE
:101CA80000284BDA0E9B53EA080340F0BC80C9F3C6
:101CB8001303002B40F0B78029F000431B0D1B05D0
:101CC800B3F1D66F40F2AF80079B5B6923B9079BDE
:101CD8001B69012B40F3A7800122079950464BF05E
:101CE80097FD059907905BF002FF002840F39B8061
:101CF80029F00043049A1B0D1B05002A79D0B3F183
:101D0800D66F6DD8B3F15C7F46D84FF000084FF01E
:101D180000092223CAF8003051E6002401255EE7B5
:101D28005A46189950464BF073FD1890002885D1F3
:101D38003EE600BF48E8050002FCFFFFCB4640F046
:101D4800A3800E9AC9F31303002A40D09C4A9342F9
:101D580058D1049B42467BB9B8F1FF3F40F08980D7
:101D6800984B99453FF424AE974BDDF8108009EA6B
:101D7800030303F5801922E6934B09EA0303B3F141
:101D8800D46F16D918F101011BD18E4A91453FF441
:101D98000FAE03F5801980468C4B40464946002219
:101DA800FEF792FB0B468046894603437FF407AE55
:101DB800AFE71E0D4FF0FF31C6F16B06B140884505
:101DC800E7D0002C5ED014EA0B0FE5D01EE0002B04
:101DD8004AD1B8F1000F8BD064B314EA0B0F2BE093
:101DE800A3F580134FF0FF386FEA13596FEA0959CA
:101DF800D2E7A3F580134FF0FF386FEA13596FEA63
:101E08000959DCE59CB114EA090F0CD04046494653
:101E1800049A5BF05CFBDDE90A0153EC102BFEF73A
:101E28009DF980468946049B002BB5D1C7E515EA84
:101E3800080FEAE718EA050FF5D0049A4046494624
:101E48005BF045FBDDE90A0153EC102BFEF784F942
:101E58000022002304460D46FEF776FE00287FF494
:101E680054AFA046A946DEE7002CB6D115EA080F04
:101E7800E2E724B114EA090F3FF4A1ADC6E718EA76
:101E8800050FF9E72A42A0E7059907985BF04AFE93
:101E980000224FF0804355EC104B20462946FEF7B0
:101EA80067FE00286DD00E9B002B78D1B8F1000F8B
:101EB80056D1C9F31303002B59D10022444B2046B5
:101EC8002946FEF74BFE002858D120462946002215
:101ED800404BFEF7F9FA04460D4605F10043089415
:101EE8000993394B0BEA03031293129A3A4B9A421D
:101EF800DDE9086740F0A980ABF1547949EC108B13
:101F08004BF08AFDDDE9082351EC100BFEF7DCFAF3
:101F180042464B46FEF722F90B462B4980462F4A8C
:101F2800194091425CD90B9A264B9A4203D10A9BDD
:101F380001333FF43DADDFF88C904FF0FF3818992E
:101F480050464BF097FA069950464BF093FA05998C
:101F580050464BF08FFA079950464BF08BFAD5E56F
:101F6800B8F1010F03D1B9F1000F3FF4CEAE002450
:101F7800174D9FED0F7B8DED087BB2E70024154DC3
:101F8800ABE7144B204629460022FEF79DFA0E9B2C
:101F980004460D46002BA0D0CDE90845A1E79FEDEA
:101FA800067B55EC174B8DED087B9AE7AFF3008065
:101FB800000000000000F0BF000000000000F03F3B
:101FC800FFFF0F00FFFFEF7F0000F07F0000503998
:101FD8000000F03F0000E03F0000E07FFFFF9F7C33
:101FE80003F15479049B4E46002BA8D129F00043F5
:101FF800129A1B0D1B059A42A1D120462946FEF7CD
:1020080033FEC9F31306FEF731FA0B46024629469A
:10201800204646EA0806FEF79FF80E9B04460D4642
:102028001E434BD02EA3D3E90023FEF797FD0028CB
:102038007FF4C5AC204629462BA3D3E90023FEF73D
:10204800ABFD00283FF47BAFB9E4049B13B3129BAC
:10205800B3F1D46F1ED82046294625A3D3E900231F
:10206800FEF786FD90B129462046FEF79FFD012820
:1020780038BF0120FEF7AEF90E9B04460D46D3B9D2
:1020880001F1004314901593DDE9146707F1D66355
:10209800129A9F1A9DED0A0B4BF0BEFC304639464A
:1020A80053EC102BFEF710FADDE90A23FEF756F879
:1020B8008046894696E7CDE91445E5E70EA3D3E9BE
:1020C8000023FEF74BFDBCE7652A3FF443AB452AE6
:1020D8003FF440AB0123FFF779BB00BFAFF30080AB
:1020E8009535A094FFFFDF3F35E5AF350000E03FB1
:1020F8000000C0FFFFFFDF419535A094FFFFCF3FF1
:102108002DE9F04F476A97B08346209E08910C92BC
:10211800129355EC104B8DED000B7FB9102049F050
:102128007FFE0246CBF8240020B9A74BEA21A74836
:1021380049F046FEC0E901770760C760DBF8243044
:10214800196859B15A680123584693404A608B6010
:102158004BF090F9DBF8243000221A602B1EB7BF31
:1021680023F00043002301220193A8BF3360019F9D
:10217800974BB8BF3260BB4319D142F20F73129A22
:102188001360C7F31303234300F0DB85219B53B986
:10219800904B21E0904B03930833219A13600398E6
:1021A80017B0BDE8F08F8B4B03930333F5E79DED34
:1021B800007B0022002351EC170B8DED0A7BFEF704
:1021C800C3FC804650B10123129A1360219B13B1BE
:1021D800824B219A1360824B0393E0E7C7F30A56B8
:1021E80014AA15A958469DED0A0B4BF089FC0290DC
:1021F800002E76D00B9BA6F2FF36CDF84C80C3F3A9
:10220800130343F07F53DDE90A0143F440131946F1
:102218000022744BFDF7A0FF65A3D3E90023FEF766
:1022280053F965A3D3E90023FDF798FF04460D464B
:102238003046FEF7DFF862A3D3E90023FEF744F93E
:1022480002460B4620462946FDF788FF04460D4600
:10225800FEF7E2FC00220746002320462946FEF747
:102268007DFC40B13846FEF7C5F822462B46FEF7FE
:102278006BFC00B9013F162F52D85B4B03EBC70329
:10228800DDE90A01D3E90023FEF768FC002849D0FC
:10229800013F00231193149B9B1B5A1E4CBFC3F193
:1022A80001030023079245BF069300230693079373
:1022B800002F39DB079B10973B44079300230993B2
:1022C800089B092B66D8052BC5BF043B00240124B5
:1022D8000893089B023B032B67D8DFE803F02D3AED
:1022E8003859DDE914631E4406F23243202BC9BF76
:1022F800C3F14003C3F120039F4006F21243D8BF45
:1023080004FA03F006F1FF36C4BF24FA03F347EAE0
:102318000300FEF75FF80122A1F1F873139276E744
:102328000123B7E71190B6E7069BDB1B06937B42B8
:10233800099300231093C3E700230D930C9B002BF4
:1023480056DC012399461A4604930C920CE00123AB
:10235800F3E700230D930C9BFB1803F10109049389
:102368004B46012BB8BF0123DBF8240000210422CF
:1023780002F114059D423FD9416058464BF03AF8A6
:10238800039000283BD1194B02464FF4D571CEE695
:102398000123DFE7012400230D9408934FF0FF3356
:1023A8000022994604931223CFE701230D93F5E702
:1023B80061436F63A787D23FB3C8608B288AC63F43
:1023C800FB799F501344D33FE5560700FC5607009E
:1023D8000000F07FE1560700D8560700B556070001
:1023E800B45607000000F83F98E80500705707004A
:1023F8000C9B99460493B7E701315200B8E7DBF824
:102408002430B9F10E0F039A1A606FD8002C6DD0E2
:10241800002F36DD07F00F02A04BF8054FEA27140E
:1024280003EBC20393ED007B8DED0E7B17D59C4B20
:1024380004F00F044FF00308D3E90823DDE90A018B
:10244800FEF76CF9CDE90001954D5CB9DDE90E2385
:10245800DDE90001FEF762F9CDE900012BE04FF05C
:102468000208F1E7E10709D508F10108DDE90E01E5
:10247800D5E90023FEF728F8CDE90E0164100835E8
:10248800E3E700F007817C42844B854D4FF002085A
:1024980004F00F02241103EBC203DDE90A01D3E9BA
:1024A8000023FEF711F80023CDE90001002C40F0CD
:1024B800E580002BD0D1119BDDE90045002B00F011
:1024C8004C810022774B20462946FEF747FB00281F
:1024D80000F04381B9F1000F00F03F81049B002B0D
:1024E80000F3E480DDE90A34CDE90034159B002BC4
:1024F80002DB0E2F40F342820D9A002A40F06782D9
:10250800099C0025DDF81880B8F1000F0DD0079B55
:10251800002B0ADD4345069AA8BF4346D21AA8EB0A
:1025280003080692079AD31A0793099B0BB30D9BCE
:10253800002B00F0A682002C00F0A182294622463A
:1025480058464BF00BF9029A0146054658464BF09F
:102558005BF80299064658464AF08CFF099B1B1BFC
:10256800099300F09182099A314658464BF0F6F8E3
:102578000290012158464BF031F8109B0446002B7D
:1025880000F084821A46014658464BF0E7F8089B4B
:102598000446012B03DC009B002B00F07C82002604
:1025A800236904EB830318695BF052FAC0F1200039
:1025B8001096079B184410F01F0000F09182C0F19C
:1025C8002003042B40F38182C0F11C00069B0344C6
:1025D80080440693079B03440793069B002B05DD65
:1025E8001A46029958464BF013F90290079B002BA4
:1025F80005DD21461A4658464BF00AF90446119B58
:10260800002B00F07682214602985BF070FA0028D1
:1026180080F26F8200230A22029958464AF04CFF42
:102628000D9B7E1E0290002B00F05C820023294641
:102638000A2258464AF040FF049B0546002B03DC5B
:10264800089B022B00F35E82B8F1000F05DD2946D6
:10265800424658464BF0DCF80546109B002B00F02C
:10266800D082696858464AF0C5FE0746002840F0FF
:102678007F820D4B024640F2EA2158E5E20706D573
:1026880008F10108D5E90023FDF71EFF01236410B6
:1026980008350BE74FF002080DE700BF98E8050082
:1026A80070E805000000F03F705707002046002240
:1026B800AC4B2946FDF708FF7E1E08F10108049C73
:1026C800CDE900014046FDF795FEDDE90023FDF761
:1026D800FBFEA54B0022FDF741FDA1F15073CDE9AA
:1026E8000E010F93002C3BD10022A04BDDE9000125
:1026F800FDF732FD02460B46CDE90023DDE90E2346
:10270800FEF74AFA002840F05781DDE90E2101F171
:102718000043DDE90001FEF721FA00283FF4E2AEAC
:10272800002425460C9BDDF80CA0DE434FF0000882
:10273800214658464AF09EFE002D00F0A980B8F1C7
:10274800000F05D0A84503D0414658464AF092FEEE
:10275800294658464AF08EFE9AE03E464C46B1E776
:10276800834B03EBC40353E90201039B1C440D9BF9
:10277800002B4AD002460B4600207E49FDF7CEFFCB
:10278800DDE90E23FDF7E8FCDDF80CA0CDE90E012C
:10279800DDE90001FEF740FA0546FDF72BFE02468B
:1027A80030350B46DDE90001FDF7D6FC0AF8015B80
:1027B80002460B46CDE90001DDE90E01FEF7ECF912
:1027C800002865D100206C49DDE90023FDF7C4FC31
:1027D80002460B46DDE90E01FEF7DEF9002840F05F
:1027E8000D81A24500F0EA8000225E4BDDE90E0172
:1027F800FDF76AFE00225B4BCDE90E01DDE9000121
:10280800FDF762FECDE90001C2E7DDE90E23FDF721
:102818005BFEA046DDF80CA0CDE90E01DDE9000164
:10282800FEF7FAF90546FDF7E5FD024630350B4699
:10283800DDE90001FDF790FC0AF8015B02460B4652
:10284800A245CDE900234FF0000223D1494BDDE931
:102858000E01FDF783FC02460B46DDE90001FEF799
:102868009BF9002840F0CA8000204249DDE90E2388
:10287800FDF772FC02460B46DDE90001FEF76EF932
:1028880070B1C24608F1FF381AF8013C302BF8D075
:10289800374655E0334BFDF717FECDE90001BDE79C
:1028A800DDE90A34CDE90034159B002BFFF628AE8C
:1028B8000E2F3FF725AE2E4B03EBC70393ED007B9E
:1028C8000C9B002B8DED047B02DAB9F1000F64D06C
:1028D800DDF80CA0DDE90045DDE9042320462946A2
:1028E800FDF71CFFFEF798F90646FDF783FDDDE9C5
:1028F8000423FDF7E9FD0246204606F130040B46A5
:102908002946FDF729FC0AF8014B039C02460B46B1
:10291800AAEB0404A14540F08280FDF71FFC0446A1
:102928000D46DDE90423FEF737F9002865D1204676
:102938002946DDE90423FEF707F908B1F3075CD45B
:10294800029958464AF096FD002301378AF800306C
:10295800129B1F60219B002B3FF421ACC3F800A001
:102968001DE400BF0000244000001C40000014408B
:1029780098E805000000E03F0000F03FA24B03EBA1
:10298800C70393ED007B0C9B002B8DED047B9FDA36
:10299800B9F1000F9CDC7FF4C3AE00229B4BDDE94C
:1029A8000401FDF791FDDDE90023FEF7EBF804468D
:1029B80000287FF4B5AE3E462546B4E0DDE90A348A
:1029C800CDE90034159B002B01DB0E2FD6DD089ACC
:1029D800012A36DC139A82B303F23343099CDDF8EB
:1029E8001880069A012158461A440692079A1A44F2
:1029F80007924AF0F3FD054686E53E4653469A4659
:102A080013F8012D392A06D1039A9A42F7D13022B8
:102A1800039901360A701A7801321A7038E70022D1
:102A28007B4BFDF751FD0022002304460D46FEF7BF
:102A38008BF800283FF450AF82E7149BC3F13603AC
:102A4800CCE709F1FF34099BA34208DBB9F1000F79
:102A5800A3EB04040EDBDDF818804B46C1E7099BA5
:102A6800109AE31A0994DDF8188000241A444B469A
:102A78001092B6E7069BA3EB09080023B1E7029E74
:102A880071E5099A029970E5029672E5089B012B97
:102A980017DC009BABB9019BC3F313039BB9019BE4
:102AA80023F00046360D360536B1069B0126013364
:102AB8000693079B01330793109B002B7FF470AD9F
:102AC8001096012075E50026F6E73FF486AD1C3325
:102AD800069A1A4498440692079A1A4407927CE583
:102AE8000346F4E7049B002B2BDC089B022B09DC34
:102AF80027E0B9F1000F1DDC089B022B1ADD3E46CA
:102B0800CDF81090049B002B7FF40CAE21460522D3
:102B180058464AF0D1FC0146044602985AF0E7FFAD
:102B280000287FF7FFADDDF80CA0312301360AF845
:102B3800013BFBE50D9B3E46CDF81090002B7FF442
:102B480083AD039F214602985AF0DFFC039B00F1F6
:102B58003009049A07F8019BFB1A9A4240F3CB808C
:102B680000230A22029958464AF0A6FC0290E9E797
:102B78002A6905F10C010C30023292005AF0E3FA8E
:102B88000122394658464AF043FE039BA8460546AB
:102B980003F1010ADDE9032313440793009B03F0C3
:102BA800010309930AF1FF332146029804935AF06E
:102BB800ACFC4146069000F1300902985AF097FFA4
:102BC8002A462146074658464AF08EFEC268014604
:102BD80002B358464AF04EFC002F3ADA0122029915
:102BE80058464AF015FE214602905AF080FF002808
:102BF80003DC29D119F0010F26D0B9F1390F1DD105
:102C080032E02846C1E700BF98E8050000001440FC
:102C1800000024400A9002985AF069FF0A990C9023
:102C280058464AF027FC0C9A5ABB089B53B9099B93
:102C380043B9B9F1390F17D0002F05DD069B03F111
:102C4800310901E0002F2ADADDF810A00AF8019B0B
:102C58006EE5089B3B4304D1009B03F00103002B66
:102C6800BCD0B9F1390F36D1049F392307F8013B9D
:102C7800BA46013F1AF8013C392B5AD001333B7050
:102C880056E5002F06DB089B3B4306D1009B03F06B
:102C9800010313B9002AA1DCD6E7002AE1DC079B6F
:102CA80057460AF8019C53452ED000230A22029960
:102CB80058464AF001FCA84502904FF000034FF037
:102CC8000A02414658460BD14AF0F6FB80460546B3
:102CD8000AF1010A66E7DDF810A009F10109B5E774
:102CE8004AF0EAFB2946804600230A2258464AF061
:102CF800E3FB0546ECE7049B4FF00008002BCCBF34
:102D08001F460127039B1F440122029958464AF097
:102D18007FFD214602905AF0EAFE0028A8DC02D185
:102D280019F0010FA4D1BA4617F8013D302BFAD09B
:102D3800FEE4039BBB429BD13123039A01361370F7
:102D4800F6E4219B002B7FF425AA014BFFF744BA38
:102D5800D8560700000000009FED010B704700BF28
:102D6800000000000000F87F70B584B005461248E6
:102D78004BF0BCFA402401E00134E4B2452C15D8EC
:102D88000DF1030301930023029303238DF80C3004
:102D9800AB689E682346012201A92846B04700284F
:102DA800EAD1214605484BF0A1FAE5E704484BF083
:102DB8009DFA04B070BD00BF60E9050078E9050020
:102DC800A0E9050008B5064834F0CEFB18B1FFF7B6
:102DD800CBFF002008BD03484BF088FAFAE700BF94
:102DE800B4E90500BCE90500024B01221A709A708B
:102DF8005A707047603A00202DE9F04FADF6943DC7
:102E080002AF0023C7F87C3B984623E16FF00040EF
:102E18005DE00F286EDD10213AB1042038750020DE
:102E28007875B875F875786918616FF300066FF3EF
:102E380041066FF382066FF3C506012363F3881614
:102E4800C1F30A0363F353266FF31F560023314679
:102E5800814808F0EBFDAD46404080F311884FF003
:102E6800030002DF04EB440007F6883303EB840514
:102E78007A4B1A6855F8341C07F5757303EB801004
:102E88005AF061F955F8341C75482EF035F80134BC
:102E9800092C32DC4FF0FF324FF0FF33CDE900232D
:102EA8006E4A07F6543303EB84016D482DF0F0FFAA
:102EB80001460028D6D0684B1B6813F0070FCBD00B
:102EC8006D4688B002AB13F110029FD01020002A83
:102ED8009FD08446042803DDDFF898E1C3F814E0A6
:102EE800BCF1080F00DD9961BCF10C0F91DD7B216D
:102EF800D9618EE76FF01B018EE75A4B1B79002BC7
:102F080000F09D80584B1B68002B40F0B58007F6F9
:102F18007C33564A4FF4F06107F5757001F080FA7A
:102F28000446002800F08B804B4B1B6813F0070FFA
:102F38003FD06D4600233B7502237B7588B002A9FC
:102F480011F1100200F051814FF00E0C22B1BCF1CA
:102F5800040F01DD464B4B6100233B7402237B7455
:102F6800002A40F04581BCF10D0F40F354810E2337
:102F780042B10320387500207875B8750120F875BE
:102F8800786908616FF300096FF341096FF38209EB
:102F98006FF3C509012161F38819C3F30A0363F3C9
:102FA80053296FF31F59002349462B4808F03EFD6B
:102FB800AD46294B1B6813F0070F3AD06D4688B011
:102FC80002AB13F1100200F0298110216AB1084602
:102FD800042903DDDFF89CC0C3F814C0082800DD0D
:102FE8009C610C2801DD9520D8610F2940F31981D7
:102FF80010213AB10420387500207875B875F87535
:10300800786918616FF3000A6FF3410A6FF3820A57
:103018006FF3C50A012363F3881AC1F30A0363F344
:10302800532A6FF31F5A002351460B4808F0FEFC41
:10303800AD46404080F311884FF0030002DFB8F539
:103048007A7F00F0F18008F10108064B1B79002B0C
:1030580040F0418100241BE7D00E0020F839002001
:1030680030020020603A0020FC390020F0390020AE
:10307800E06C0600E4E905009B4A00929B4A4FF485
:10308800707107F114002DF0EFFC0346002848D0BA
:10309800974A126812F0070F3DD06C4688B002A913
:1030A80011F1100200F0958010206AB1054604283D
:1030B80003DDDFF848C2C1F814C0082D00DD8B61BC
:1030C8000C2D01DD8A23CB610F2840F38580102366
:1030D8003AB10420387400207874B874F8743869E8
:1030E800086179686FF300016FF341016FF38201A2
:1030F8006FF3C5010846012161F388100146C3F347
:103108000A0363F353216FF31F5179600023784852
:1031180008F08CFCA546404080F311884FF003006E
:1031280002DF07F10C03009307F5757310224FF4C3
:10313800707107F1140055F029FE034600283FF48A
:10314800E6AE6B4A126812F0070F3BD06C4688B0A7
:1031580002A911F1100242D010206AB105460428D4
:1031680003DDDFF898C1C1F814C0082D00DD8B61BC
:103178000C2D01DD8F23CB610F2833DD10233AB1ED
:103188000420387400207874B874F87438690861B9
:1031980039686FF300016FF341016FF382016FF338
:1031A800C5010846012161F388100146C3F30A03EB
:1031B80063F353216FF31F51396000234C4808F023
:1031C80035FCA546404080F311884FF0030002DF2C
:1031D8009DE66FF0004068E76FF01B0378E76FF03B
:1031E8000040BAE76FF01B03C9E76FF0004CADE68B
:1031F800BCF1080F01DD3F4B8B6101F11C0300207E
:1032080006E007F1100E1EF800E003F801EB0130AC
:103218000128F6D9A7E66FF01B03A9E66FF0004175
:10322800D4E66FF01B01E4E607F5386207F684314F
:1032380031482DF089FE804600283FF406AF2C4B1C
:103248001B6813F0070F37D06C4688B002AB13F138
:1032580010023AD0102162B10846042901DD274D39
:103268005D61082801DDC3F818800C2801DD9C2069
:10327800D8610F292CDD10213AB1042038750020BF
:103288007875B875F875786918616FF3000B6FF386
:10329800410B6FF3820B6FF3C50B012363F3881B9C
:1032A800C1F30A0161F3532B6FF31F5B00235946E7
:1032B8000F4808F0BBFBA546404080F311884FF04B
:1032C800030002DF4FF00008BFE66FF00041C2E7DD
:1032D8006FF01B01D0E70A4B1A7BD7F87C1B094B10
:1032E800186801F08BFDB5E6F4390020003A00209B
:1032F800D00E002008EA050030020020E4E90500AD
:10330800603A0020F0390020F0B58BB008AFFFF725
:103318006BFD8D4B93F86430002B43D08B4B93F8A7
:103328006430002B00F0E480894B1A6900920FCBBF
:1033380001F0BAFA0446002800F00182854B1B68A8
:1033480013F0070F00F0B6816D4600233B7102238E
:103358007B7188B0AC4615F1100200F082810E2016
:1033680022B1042802DD7C4BCCF8143000233B70DA
:1033780002237B70002A00F07781082802DD774B52
:10338800CCF818300CF11C030021012900F26C81E3
:1033980001F1080606EB070E1EF808EC03F801EB2E
:1033A8000131F2E768482DF0A9FE05460028B5D09E
:1033B800684B1B6813F0070F4DD06E4600233B7116
:1033C80002237B7188B0344616F1100212D00E2009
:1033D8001AB1042801DD604B636100233B700223AE
:1033E8007B70A2B1082801DD5D4BA36104F11C03C9
:1033F80000210AE06FF00040EAE701F1080CBC4444
:103408001CF808CC03F801CB01310129F5D90D28A6
:1034180065DD0E2342B10321397100217971B9713B
:103428000121F9717868206100216FF300016FF3C1
:1034380041016FF382016FF3C501012060F3881128
:10344800C3F30A0363F353216FF31F510023414869
:1034580008F0ECFAB5463F4B1B6813F0070F37D05E
:103468006E4688B0334616F110023BD0102162B187
:103478000846042901DD3B4C5C61082800DD9D619C
:103488000C2802DD40F24510D8610F292DDD1024EB
:103498003AB10421397100217971B971F9717868EB
:1034A800186100216FF300016FF341016FF382018E
:1034B8006FF3C501012363F38811C4F30A0464F3AD
:1034C80053216FF31F510023224808F0AFFAB54685
:1034D800404080F311884FF0030002DF1EE76FF0D1
:1034E8001B0397E76FF00041C1E76FF01B04CFE7BC
:1034F80016482DF003FE054600283FF415AF154B7E
:103508001B6813F0070F5FD06E4600233B71022340
:103518007B7188B0344616F1100212D00E201AB111
:10352800042801DD0C4B636100233B7002237B7090
:1035380032B3082801DD0C4BA36104F11C03002100
:103548001CE06FF00040EAE79802002030020020FB
:10355800603A0020D00E0020E06C060050EA05001A
:1035680018EA0500E4E9050034EA050001F1080C51
:10357800BC441CF808CC03F801CB01310129F5D96A
:103588000D2865DD0E2342B10321397100217971BF
:10359800B9710121F9717868206100216FF3000188
:1035A8006FF341016FF382016FF3C501012060F3EE
:1035B8008811C3F30A0363F353216FF31F510023E8
:1035C800B44808F033FAB546B24B1B6813F0070F3E
:1035D80037D06E4688B0334616F110023BD0102122
:1035E80062B10846042901DDAB4C5C61082800DDA6
:1035F8009D610C2802DD4FF4A570D8610F292DDDDF
:1036080010243AB10421397100217971B971F97125
:103618007868186100216FF300016FF341016FF3BF
:1036280082016FF3C501012363F38811C4F30A040F
:1036380064F353216FF31F510023964808F0F6F9FD
:10364800B546404080F311884FF0030002DF6BE677
:103658006FF01B0397E76FF00041C1E76FF01B04A1
:10366800CFE76FF000407BE60D2840F30A810E2378
:103678004AB10321397100217971B9710121F971B8
:103688007868CCF8100000216FF300016FF3410156
:103698006FF382016FF3C501012060F38811C3F352
:1036A8000A0363F353216FF31F510023794808F08D
:1036B800BDF9AD46774B1B6813F0070F39D06D463F
:1036C80088B02B4615F1100200F0DE80102162B19F
:1036D8000846042901DD704E5E61082800DD9C6102
:1036E8000C2802DD4FF4A770D8610F2940F3CF8072
:1036F80010243AB10421397100217971B971F97135
:103708007868186100216FF300016FF341016FF3CE
:1037180082016FF3C501012363F38811C4F30A041E
:1037280064F353216FF31F5100235A4808F07EF9C0
:10373800AD46404080F311884FF0030002DF574B3D
:1037480001221A741B7923B1554B1B68002B00F01A
:10375800AB8003F009F80146002844D04D4B1B68A4
:1037680013F0070F39D06D4688B02B4615F11002BB
:1037780000F0FF80102062B10446042801DD464EA7
:103788005E61082C00DD99610C2C02DD4FF4B071EC
:10379800D9610F2840F3F08010243AB1042139711F
:1037A80000217971B971F9717868186100216FF396
:1037B80000016FF341016FF382016FF3C50101232B
:1037C80063F38811C4F30A0464F353216FF31F51A0
:1037D8000023304808F02AF9AD46404080F31188AC
:1037E8004FF0030002DF2F4800F0A0FD014600283B
:1037F80044D0284B1B6813F0070F39D06D4688B0AA
:103808002B4615F1100200F0BA80102062B1044670
:10381800042801DD204E5E61082C00DD99610C2C26
:1038280002DD40F26311D9610F2840F3AB80102408
:103838003AB10421397100217971B971F971786847
:10384800186100216FF300016FF341016FF38201EA
:103858006FF3C501012363F38811C4F30A0464F309
:1038680053216FF31F5100230A4808F0DFF8AD46D3
:10387800404080F311884FF0030002DF0C37BD464B
:10388800F0BD6FF01B03F3E66FF000411FE76FF028
:103898001B042EE7D00E0020E4E90500603A002062
:1038A800743A00203002002000220023CDE90623CC
:1038B8000023049303220392029301930093334B52
:1038C80041F64C523249334834F0FEFD324B186011
:1038D800324934F0C5FB014600283FF43AAF304B7B
:1038E8001B6813F0070F37D06D4688B02B4615F1CB
:1038F800100238D0102062B10446042801DD294E98
:103908005E61082C00DD99610C2C02DD4FF4AC716E
:10391800D9610F282ADD10243AB104213971002118
:103928007971B971F9717868186100216FF3000134
:103938006FF341016FF382016FF3C501012363F354
:103948008811C4F30A0363F353216FF31F51002353
:10395800134808F06BF8AD46404080F311884FF0EB
:10396800030002DFF5E66FF00040C4E76FF01B04C8
:10397800D2E76FF00040FEE66FF01B040DE76FF032
:10398800004043E76FF01B0452E700BF012E000020
:10399800F8E3002080160020743A002068EA050049
:1039A800D00E0020E4E9050010B50446FFF7ACFC92
:1039B800034A082120464CF05AFD002010BD00BFE4
:1039C80070EA0500F0B58BB002AFA84B1B7C2BBB8F
:1039D800A74B1B6813F0060F00F08581A54BFB6110
:1039E80002223A7100237B71BB71FB717968B9615E
:1039F800194663F3000163F3410163F3820163F342
:103A0800C50162F38811082262F3532163F31F5141
:103A180007F11802964808F009F864E102F0D2FEAE
:103A28000146002848D0924B1B6813F0070F3DD081
:103A38006D4688B002AB13F1100212D0102062B1AB
:103A48000446042801DD8C4E5E61082C00DD996176
:103A58000C2C09DD4FF4BB71D9610F284FDD102400
:103A680004E06FF00040EAE76FF01B043AB104216C
:103A7800397100217971B971F9717868186100217B
:103A88006FF300016FF341016FF382016FF3C5011A
:103A9800012363F38811C4F30A0363F353216FF31B
:103AA8001F510023724807F0C1FFAD46404080F324
:103AB80011884FF0030002DF00F09AFC014600284D
:103AC8004BD06B4B1B6813F0070F40D06D4688B086
:103AD80002AB13F1100215D0102062B1044604287D
:103AE80001DD654E5E61082C00DD99610C2C0CDD52
:103AF80040F27911D9610F285EDD102407E06FF0DC
:103B08001B04B3E76FF00040E7E76FF01B043AB11E
:103B18000421397100217971B971F97178681861D6
:103B280000216FF300016FF341016FF382016FF31E
:103B3800C501012363F38811C4F30A0363F3532116
:103B48006FF31F5100234A4807F070FFAD4640400D
:103B580080F311884FF0030002DF444B1A6900928A
:103B68000FCB00F09BFD0446002800F0B380404BCB
:103B78001B6813F0070F55D06D4600233B710223D5
:103B88007B7188B00DF1080C1CF1100217D00E20C3
:103B980022B1042802DD394BCCF8143000233B70E5
:103BA80002237B70CAB1082802DD354BCCF81830E7
:103BB8000CF11C0300210EE06FF01B04A7E76FF067
:103BC8000040E5E701F1200606EB070E1EF820ECA1
:103BD80003F801EB01310129F4D90D2840DD0E234A
:103BE8004AB10321397100217971B9710121F97143
:103BF8007868CCF8100000216FF300016FF34101E1
:103C08006FF382016FF3C501012060F38811C3F3DC
:103C18000A0363F353216FF31F510023144807F07D
:103C280005FFAD46124B1B6813F0070F4CD06D46CD
:103C380088B002AB13F1100215D0102162B108460A
:103C4800042901DD0C4E5E61082800DD9C610C280A
:103C580018DD40F27D10D8610F2947DD102413E0EC
:103C68006FF01B03BCE76FF00041E7E7603A002004
:103C7800D00E002088EA0500E4E90500E06C0600A3
:103C8800A4EA05006FF01B043AB104213971002140
:103C98007971B971F9717868186100216FF30001C1
:103CA8006FF341016FF382016FF3C501012363F3E1
:103CB8008811C4F30A0363F353216FF31F510023E0
:103CC8000C4807F0B3FEAD46404080F311884FF032
:103CD800030002DF084B00221A7408482DF06CF923
:103CE80007482DF069F92437BD46F0BD6FF01B0475
:103CF800CAE700BFD00E0020603A00203002002042
:103D08009802002010B50446FFF75CFE034A08211C
:103D180020464CF0ACFB002010BD00BFBCEA0500FB
:103D2800034B002283F8802183F88121704700BF6C
:103D3800B859002008B50021034B19704FF4707270
:103D4800024859F03AFA08BDD8E30020405B002049
:103D580008B5024835F0E4FC08BD00BF00030020A8
:103D680090B589B000AF474B93F8FC3B83422CD009
:103D7800444B0022A3F8FE2B83F8FC0B424B1B6834
:103D880003F00703022B77D9404B53F820106C46F9
:103D98003A7102237B7188B0EC461CF1100239D0CD
:103DA8000E2022B1042802DD394BCCF81430002350
:103DB8003B7002237B70002A39D0082801DDCCF83B
:103DC80018100CF11C0300212FE02F4B1B6813F077
:103DD800060F51D02F4BFB6102223A7100237B71F1
:103DE800BB71FB717968B961194663F3000163F32C
:103DF800410163F3820163F3C50162F3881108226C
:103E080062F3532163F31F5107F118021E4807F0AC
:103E18000DFE31E06FF00040C3E701F1200EBE4413
:103E28001EF820EC03F801EB01310129F5D90D2822
:103E380025DD0E234AB10321397100217971B97149
:103E48000121F9717868CCF8100000216FF30001A6
:103E58006FF341016FF382016FF3C501032060F333
:103E68008811C3F30A0363F353216FF31F5100232F
:103E7800054807F0DBFDA5462437BD4690BD6FF029
:103E88001B03D7E700AF0020C80E00201CF1050077
:103E9800C8EB050090EB0500614B93F80C3C83429E
:103EA80000F0BD80F0B583B000AF04465C4B002243
:103EB800A3F80E2C83F80C0C5A4B1B6803F007036D
:103EC800022B52D9584B53F820106D463A710223F1
:103ED8007B7188B0EC461CF1100213D00E2022B181
:103EE800042802DD514BCCF8143000233B70022328
:103EF8007B70AAB1082801DDCCF818100CF11C035E
:103F080000210BE06FF00040E9E701F1080606EB3D
:103F1800070E1EF808EC03F801EB01310129F4D96A
:103F28000D286FDD0E234AB1032139710021797103
:103F3800B9710121F9717868CCF8100000216FF38C
:103F480000016FF341016FF382016FF3C501032094
:103F580060F38811C3F30A0363F353216FF31F510E
:103F68000023304807F062FDAD46032C4DD00320F6
:103F78004AF068F8002842D02A4B1B6813F0070F54
:103F880037D06D4688B06B4613F1100241D010212E
:103F980062B10C46042901DD254E5E61082C00DD66
:103FA80098610C2C02DD4FF49670D8610F2933DD2F
:103FB80010243AB10421397100217971B971F9716C
:103FC8007868186100216FF300016FF341016FF306
:103FD80082016FF3C501012363F38811C4F30A0357
:103FE80063F353216FF31F5100230E4807F01EFDA2
:103FF800AD46404080F311884FF0030002DF0C37D4
:10400800BD46F0BD6FF01B038DE7032002F0AAFC4C
:10401800B0E76FF00041BBE76FF01B04C9E77047DA
:1040280000AF0020C80E00200CF10500DCEB0500F5
:10403800E4E9050010B5164BB3F80E3A23B3013B7B
:104048009BB2144800F5A042A2F80E3A03EB4301D4
:104058004A01043200EB42000430BBB1013B9BB281
:104068000C4A02F5A041A1F80E3A03EB43035901AB
:10407800043102EB4102141D002101F0EFFE002182
:10408800204601F0A7FE10BD7723DAE77723E7E79C
:1040980000AF0020005F002038B505460024064B1D
:1040A80083F8184C2046FFF7F7FE044A08212846F3
:1040B8004CF0DDF9204638BD00AF0020F0EB0500DC
:1040C80008B5094B93F8083C4BB1074B012283F81C
:1040D800182C064A08214CF0CAF9002008BD044AE9
:1040E80008214CF0C4F9F8E700AF002014EC0500F3
:1040F80038EC050010B504460A4B93F8183C2BB170
:10410800094A08214CF0B3F9002010BD0020054BE6
:1041180083F8080CFFF724FE044A082120464CF0D7
:10412800A6F9F1E700AF002068EC05009CEC05005B
:1041380008B5054B012283F8082C044A08214CF0E5
:1041480096F9002008BD00BF00AF0020C4EC0500B0
:1041580030B583B0144B1B781BBB02460C464BF69C
:104168008033124912482CF0D5FC054618B92CB9F1
:104178000D4B01221A70284603B030BDE0034FF4FE
:104188007A72002300F2E7300021FCF74FFC024668
:104198000B4600200021CDE90001064837F006FD56
:1041A800E6E76FF00F05E6E7D8E300203C5B002068
:1041B800405B00204810002008B5034858F0B9FEBD
:1041C800024835F0ADFA08BD481000200003002071
:1041D80010B50446FFF7F0FF034A082120464CF0CB
:1041E80046F9002010BD00BFECEC05002DE9F043B6
:1041F8002DED028B85B00746042957D11646506825
:104208000378424AD35C13F0040F56D0B3681B7886
:104218003E4AD35C13F0040F57D00A22002148F01D
:10422800A5FC04461FFA80F80A220021B06848F06D
:104238009DFC05461FFA80F90021F06848F042FB12
:10424800B0EE408AB5EEC00AF1EE10FA45D9F7EEA5
:10425800007AB4EEE70AF1EE10FA3EDCA4B2AEB290
:10426800009623462A4A082138464CF000F9B0EE59
:10427800480A49464046FFF76BFF054610F1100F04
:1042880033D0002D3BD118EE100AFCF7C5F8CDE964
:104298000201009623461F4A082138464CF0E7F8E9
:1042A800284605B0BDEC028BBDE8F0831A4A01210F
:1042B8004CF0DDF86FF01505F2E7184A0121384691
:1042C8004CF0D5F86FF01505EAE7154A0121384694
:1042D8004CF0CDF86FF01505E2E7124A0121384697
:1042E8004CF0C5F86FF01505DAE7FFF765FFB0EE9B
:1042F800480A49464046FFF72BFF0546C1E72B46CB
:10430800094A082138464CF0B2F8BCE79355070033
:10431800A8ED0500E4ED0500F8EC050044ED050006
:1043280060ED05007CED0500C8ED050010B588B00E
:10433800B0B1294B1B7803B3274B5B78002B47D1CF
:10434800254CA06045F6E832002104F10C0058F035
:1043580034FFFFF76FFE01236370002008B010BD23
:104368001E4C4FF4667322461D491E484AF03FFE14
:104378004FF46671204602F04DFD1B4B1B6813F08D
:10438800060F02D16FF08B00E8E7184B0793022263
:104398008DF8042000238DF805308DF806308DF84F
:1043A800073001990691194663F3000163F341014F
:1043B80063F3820163F3C50162F38811082262F393
:1043C800532163F31F5106AA074807F02FFBD9E7CB
:1043D8006FF07700C2E700BF005F002018EE05000D
:1043E80038EE050050EE0500C80E002070EE0500FE
:1043F80038B50A4B5B786BB1084D00246C7049F0F6
:10440800D0FD05F5A045C5F8F44B2046FFF744FD5F
:10441800204638BD6FF07700FBE700BF005F002043
:104428002DE9F041ADF5F66D04AF04460D46904612
:104438001E464FF4F062002107F1080058F0BDFE57
:10444800904B1B7903B38F4B1B78012B47D08E4AB7
:10445800126812F0070F00F012816C4688B004A9A8
:1044680011F1100200F0DB800C2042B1054604284F
:1044780001DD864E4E61082D40F3D4808B610B28F8
:1044880040F3FA800C23CFE07F4B1B6813F0070F33
:1044980002D16FF00504E9E07D4BC7F89C37022391
:1044A8003B7000237B70BB70FB703A68C7F8982795
:1044B800194663F3000163F3410163F3820163F377
:1044C800C501012262F38811082262F3532163F3C4
:1044D8001F5107F5F3626C4807F0A8FAD9E73B1DAE
:1044E800019307F57273009307F108031022294618
:1044F800204654F082FC0446002840F0B780614B07
:104508001B7B012B1BD0022B33D05F4A126812F0A1
:10451800070F00F081806C4688B004A911F11002E1
:104528004BD00C203AB10546042801DD594E4E61A6
:10453800082D45DD8B610B2867DD0C2342E0514BCC
:10454800587BC0EB001079680297534B0193A02366
:10455800009300231A4607F1080505EB80100AF0BE
:104568004FFE002854D14C4BC8F800303B883360CC
:104578007CE079680297484B0193A02300930023BD
:104588001A4607F108000AF03BFE08B104466DE040
:104598003B8879680297404A1A440192C3F1A00304
:1045A8009BB200930123002207F572700AF028FEDF
:1045B80080BB3B885B003B80D5E76FF00040B1E7EC
:1045C8006FF01B033AB10320387000207870B87080
:1045D800F8703868086100216FF300016FF341013A
:1045E8006FF382016FF3C501012060F38811C3F3F3
:1045F8000A0363F353216FF31F510023224807F086
:1046080015FAA5466FF0120430E06FF01B03D9E7E6
:1046180004462BE0044629E06FF0120426E06FF010
:10462800004022E76FF01B033AB1032038700020E6
:104638007870B870F8703868086100216FF300016D
:104648006FF341016FF382016FF3C501012060F33D
:104658008811C3F30A0363F353216FF31F51002337
:10466800094807F0E3F9A5466FF01204204607F55C
:10467800F467BD46BDE8F0816FF01B03D4E76FF027
:104688001204F3E7BCBB00202810002074F10500D9
:104698002CF1050050F105001CBB002084B0B0B51A
:1046A80094B000AF07F1600484E80F00784B1B78E2
:1046B80097F8602093421FD1012B46D0754A1268A3
:1046C80012F0070F00F0E1806C4688B0694611F1DE
:1046D800100200F0A9800C204AB18446042801DDAC
:1046E8006D4D4D61BCF1080F40F3A1808B610B2823
:1046F80040F3C6800C239CE0664B1B6813F0070F41
:1047080002D16FF01200B5E0644BFB6402233B71E9
:1047180000237B71BB71FB717A68BA64194663F335
:10472800000163F3410163F3820163F3C5010122D0
:1047380062F38811082262F3532163F31F5107F1D2
:104748004802544807F072F9DBE797F8643053B130
:104758004F4B1B79BBB10AF04DFE002840F08A8010
:104768004B4B00221A7197F86130002B00F08B80B8
:10477800474B5B7883B30AF0A1FE00287AD1444BFB
:1047880000225A7076E0434B1B6813F0070F02D1E2
:104798006FF077006EE0424BFB6102233B71002310
:1047A8007B71BB71FB717A68BA61194663F30001CA
:1047B80063F3410163F3820163F3C501012262F3EC
:1047C8008811082262F3532163F31F5107F118027D
:1047D800304807F02BF9DBE72E4B1B6813F0060F68
:1047E80002D16FF0770045E02E4B7B6302223A71CD
:1047F80000237B71BB71FB7179683963194663F3D8
:10480800000163F3410163F3820163F3C50162F3BD
:104818008811082262F3532163F31F5107F1300214
:104828001C4807F003F9DCE76FF0004054E76FF02D
:104838001B033AB10320387100207871B871F87100
:104848007868086100216FF300016FF341016FF38D
:1048580082016FF3C501012060F38811C3F30A03D5
:1048680063F353216FF31F5100230A4807F0DEF862
:10487800A54600205037BD46BDE8B04004B070479B
:104888006FF01B03D5E70020F4E70020F2E700BF34
:10489800BCBB00202810002074F105008CF1050035
:1048A800C4F10500FCF1050084B0B0B590B002AFCA
:1048B80007F1480484E80F0097F84830012B1DD011
:1048C8006E4A126812F0070F00F0D6806C4688B066
:1048D80002A911F1100200F0A0800C204AB1844610
:1048E800042801DD664D4D61BCF1080F40F3988046
:1048F8008B610B2840F3BD800C2393E0614B1B7840
:10490800012B0ED197F84C30002B42D05D4B1B7910
:1049180083B35A4B1B6813F0060F0BD16FF0770067
:10492800A1E042F21072002108460AF02BFE00288E
:10493800E8D098E0544BFB6102223A7100237B7166
:10494800BB71FB717968B961194663F3000163F3C0
:10495800410163F3820163F3C50162F38811082200
:1049680062F3532163F31F5107F11802434807F01C
:104978005DF8D3E73B6D3A1D019297F854200092F9
:1049880042F2107210214BF680300AF05DFE0028CA
:1049980069D197F849306BB13A4B5B78ABB997F866
:1049A8004A3042F2107210214BF680300BF026F894
:1049B800002858D1334C07F1480CBCE80F000FC44D
:1049C800DCF80030236000204DE02C4B1B6813F00E
:1049D800060F02D16FF0770045E02C4B7B63022273
:1049E8003A7100237B71BB71FB7179683963194691
:1049F80063F3000163F3410163F3820163F3C501CB
:104A080062F38811082262F3532163F31F5107F1FF
:104A180030021A4807F00AF8DCE76FF000405DE75B
:104A28006FF01B033AB10320387100207871B87118
:104A3800F8717868086100216FF300016FF3410194
:104A48006FF382016FF3C501012060F38811C3F38E
:104A58000A0363F353216FF31F510023074806F03D
:104A6800E5FFA54600203837BD46BDE8B04004B094
:104A780070476FF01B03D5E70020F4E728100020EB
:104A880074F10500BCBB002034F205005CF205009F
:104A980008B10068704710B5074C4FF407732246F9
:104AA800064907484AF0A3FA06484AF0A0FA4FF424
:104AB8000771204602F0AEF9A0F20500D0F2050019
:104AC80050EE0500E4F20500F0B59BB000AFFFF72B
:104AD800DFFF04460378032B00F0B980062B47D08C
:104AE800022B1BD0BB4A126812F0060F1CD06C4672
:104AF80088B0694611F1100200F046810C2042B1DD
:104B08000546042801DDB44E4E61082D40F33F816F
:104B18008B610B2840F36E810C233AE1AD4B1B6887
:104B280003F00703022B02D86C37BD46F0BDAB4B30
:104B38007B6602233B7100237B71BB71FB717A6832
:104B48003A66194663F3000163F3410163F3820196
:104B580063F3C501032262F38811082262F353212B
:104B680063F31F5107F160029A4806F05FFFDBE725
:104B7800984B1B6803F00703022B1ED8606800F0EF
:104B8800CDF901460028CFD0924B1B6813F0070FD0
:104B9800CAD06D4688B06B4613F110022ED00C2097
:104BA8003AB10446042801DD8D4E5E61082C28DDEB
:104BB80099610B2848DD0C2425E08A4BFB61022310
:104BC8003B7100237B71BB71FB717A68BA6119462E
:104BD80063F3000163F3410163F3820163F3C501E9
:104BE800032262F38811082262F3532163F31F51F1
:104BF80007F11802774806F019FFBFE76FF0004089
:104C0800CEE76FF01B043AB10321397100217971A5
:104C1800B971F9717868186100216FF300016FF3B9
:104C280041016FF382016FF3C501012363F388111A
:104C3800C4F30A0363F353216FF31F51002365483C
:104C480006F0F4FEAD466FE76FF01B04DBE7614B3F
:104C58001B6803F00703022B2CD8606849F0A7F9FA
:104C680020B15C4B1B6813F0060F44D1606800F05C
:104C7800A5F910F1780F3FF457AF00283FF454AF6F
:104C8800544B1B6813F0070F3FF44EAF6D4688B0C6
:104C98006B4613F110024ED00C213AB10C46042990
:104CA80001DD514E5E61082C48DD98610B2968DDF5
:104CB8000C2445E04D4B7B6302233B7100237B7141
:104CC800BB71FB717A683A63194663F3000163F3B9
:104CD800410163F3820163F3C501032262F3881182
:104CE800082262F3532163F31F5107F13002394858
:104CF80006F09CFEB1E73E4BFB6402223A710023AA
:104D08007B71BB71FB717968B964194663F3000163
:104D180063F3410163F3820163F3C50162F3881110
:104D2800082262F3532163F31F5107F1480229480F
:104D380006F07CFE9AE76FF00041AEE76FF01B04C7
:104D48003AB10321397100217971B971F971786823
:104D5800186100216FF300016FF341016FF38201C5
:104D68006FF3C501012363F38811C4F30A0363F3E6
:104D780053216FF31F510023164806F057FEAD4626
:104D8800D2E66FF01B04DBE76FF00040B7E66FF088
:104D98001B033AB10320387100207871B871F8719B
:104DA8007868086100216FF300016FF341016FF328
:104DB80082016FF3C501022060F38811C3F30A036F
:104DC80063F353216FF31F510023024806F02EFEB0
:104DD800A546A9E620100020BCF30500F8F205005E
:104DE80014F3050004F3050088F305004CF30500EF
:104DF80060F305006FF01B03CBE700BFF0B58BB085
:104E080000AF7860B9603A733F4B1B7813B12C3709
:104E1800BD46F0BD3B1D93E8070049F0CAF80446BB
:104E280000286AD0394B1B68834266D010F18C0F7A
:104E380019D0374B1B6813F0060F5ED06D4688B04B
:104E48006B4613F1100233D00C213AB108460429FD
:104E580001DD304E5E6108282DDD9C610B294FDD98
:104E68004FF00C0C29E02A4B1B6813F0060F44D0B6
:104E7800294B7B6202223A7000237B70BB70FB7067
:104E880039683962194663F3000163F3410163F33A
:104E9800820163F3C50162F38811082262F353218A
:104EA80063F31F5107F12002194806F0BFFD24E003
:104EB8006FF00041C9E76FF01B0C3AB1032139705C
:104EC80000217970B970F9703868186100216FF3A2
:104ED80000016FF341016FF382016FF3C5010223F3
:104EE80063F38811CCF30A0363F353216FF31F5163
:104EF8000023074806F09AFDAD46044B1C6086E780
:104F08006FF01B0CD9E700BF220E0020D0BB002099
:104F18002010002000F40500E4F30500B0B582B0CD
:104F280000AF00F0AFF900283AD00146214B1B68CA
:104F380013F0070F34D06C4688B06B4613F110029B
:104F480032D00C2042B18446042801DD1A4D5D613F
:104F5800BCF1080F00DD99610B2828DD4FF00C0C1F
:104F68003AB10321397100217971B971F971786801
:104F7800186100216FF300016FF341016FF38201A3
:104F88006FF3C501012363F38811CCF30A0C6CF3AA
:104F980053216FF31F510023064806F047FDA5462D
:104FA80000200837BD46B0BD6FF00040CAE76FF07B
:104FB8001B0CD5E70C0F002084F4050010B588B051
:104FC80000F0BCF8044610B9204608B010BD144BD8
:104FD8001B6813F0070FF7D0124B079302238DF8C5
:104FE800043000238DF805308DF806308DF8073031
:104FF800019A0692194663F3000163F3410163F3D2
:10500800820163F3C501012262F38811082262F369
:10501800532163F31F5106AA014806F007FDD3E7A1
:105028000C0F0020BCF4050028B1014600239BB3F7
:105038006FF0020070471D4B1B6813F0060F02D17A
:105048006FF01500704700B589B0194B079302221D
:105058008DF8042000238DF805308DF806308DF882
:10506800073001990691194663F3000163F3410182
:1050780063F3820163F3C50162F38811082262F3C6
:10508800532163F31F5106AA084806F0CFFC6FF0BE
:10509800150009B05DF804FB1846064A02EBC30286
:1050A80052688A42CED00133DBB2C0E7100F00202D
:1050B800F8F40500F0BB0020002038B11C4B1B6839
:1050C80013F0060F09D16FF00B007047194B03EB73
:1050D800C0035B6853B30130EFE700B589B0164BE6
:1050E800079302228DF8042000238DF805308DF8EF
:1050F80006308DF8073001990691194663F30001CF
:1051080063F3410163F3820163F3C50162F388111C
:10511800082262F3532163F31F5106AA044806F0DC
:1051280085FC6FF00B0009B05DF804FB704700BF09
:10513800100F0020F0BB002010F50500F0B589B075
:1051480000AFD0B10546FFF76FFF044610F1030F1B
:105158003CD0484B13F83430013BDBB2012B40F212
:1051680086800121434B03F8341028461EF078FE50
:10517800002877D12437BD46F0BD3F4B1B6813F09C
:10518800070F02D16FF01500F4E73C4BFB610223D7
:105198003B7100237B71BB71FB717A68BA61194658
:1051A80063F3000163F3410163F3820163F3C50113
:1051B800012262F38811082262F3532163F31F511D
:1051C80007F118022C4806F031FCDBE7FFF774FF03
:1051D800041E04DB274B03EBC4035D60B9E7264BD1
:1051E8001B6813F0060F38D06E4688B06B4613F173
:1051F80010020DD00C213AB10846042901DD204DDA
:105208005D61082807DD9C610B2928DD0C2504E079
:105218006FF00041EFE76FF01B053AB103213971D8
:1052280000217971B971F9717868186100216FF3FB
:1052380000016FF341016FF382016FF3C50102238F
:1052480063F38811C5F30A0363F353216FF31F5106
:105258000023094806F0EAFBB54620468AE76FF0C6
:105268001B05DAE7034B002203F8342082E76FF0CE
:1052780077007FE7F0BB0020100F0020F8F405004E
:1052880030F50500F0B583B000AFFFF7CDFE041E82
:105298000BDB264B002203F8342003EBC4035A60CF
:1052A800144620460C37BD46F0BD214B1B6813F051
:1052B800060FF6D06D4688B06B4613F110022ED05B
:1052C8000C213AB10846042901DD1A4E5E6108280E
:1052D80000DD9C610B2925DD4FF00C0C3AB1032150
:1052E800397100217971B971F971786818610021F3
:1052F8006FF300016FF341016FF382016FF3C50192
:10530800022363F38811CCF30A0363F353216FF389
:105318001F510023064806F089FBAD46C1E76FF030
:105328000041CEE76FF01B0CD8E700BFF0BB0020B0
:10533800100F002050F5050070B5846845680669AF
:1053480002F4C003B3F5C00F1ED06BB302F0E863DC
:10535800B3F1C86F38D002F0C863B3F5800F43D0FB
:105368002D6801238B401D424ED012F4000F04D04B
:1053780035682B4201D082F0C062A46902F0C06394
:1053880002F0B072A04770BD274C40F26A33224643
:105398002649274849F02BFE264849F028FE40F2C6
:1053A8006A31204601F036FD1F4C40F26E3322462A
:1053B80021491F4849F01BFE204849F018FE40F2D9
:1053C8006E31204601F026FD174C40F2713322461B
:1053D8001B49174849F00BFE1A4849F008FE40F2ED
:1053E8007131204601F016FD0F4C4FF45E732246D2
:1053F80015490F4849F0FBFD144849F0F8FD4FF4F2
:105408005E71204601F006FD074C40F282332246C9
:105418000F49074849F0EBFD0E4849F0E8FD40F216
:105428008231204601F0F6FCBCF5050004F90500C0
:1054380050EE050048F9050074F90500A0F90500CB
:10544800CCF9050050FA0500A4FA0500F0FA0500A9
:10545800B0F80500F0F8050010B504460C4B1960CB
:105468000C4B1A60012383400B490C4A4A608B603D
:105478000B4848F0A6FD08B1012010BDE1B24FF07D
:1054880070720748FFF758FF0028F6D00120F4E7AC
:1054980024BC002020BC002014BC0020855D000036
:1054A8006CDE050010B543681C68012303FA01F19E
:1054B8000C4204D09AB18368DB68984710BD0A4C47
:1054C80040F2266322460949094849F090FD0948F7
:1054D80049F08DFD40F22661204601F09BFC83686F
:1054E8001B699847EAE700BFBCF50500B0F805005E
:1054F80050EE0500F0F80500174B1B6813F0070F76
:1055080001D10120704700B589B0144B07930223DD
:105518008DF8043000238DF805308DF806308DF8AD
:105528000730019A0692194663F3000163F34101BB
:1055380063F3820163F3C501012262F38811082233
:1055480062F3532163F31F5106AA034806F06EFA6B
:10555800012009B05DF804FB940E002038FB05001B
:10556800174B1B6813F0070F01D10120704700B5D6
:1055780089B0144B079302238DF8043000238DF86B
:1055880005308DF806308DF80730019A06921946D5
:1055980063F3000163F3410163F3820163F3C5011F
:1055A800012262F38811082262F3532163F31F5129
:1055B80006AA034806F03AFA012009B05DF804FB90
:1055C800940E002064FB0500174B1B6813F0070FAF
:1055D80001D10120704700B589B0144B079302230D
:1055E8008DF8043000238DF805308DF806308DF8DD
:1055F8000730019A0692194663F3000163F34101EB
:1056080063F3820163F3C501012262F38811082262
:1056180062F3532163F31F5106AA034806F006FA02
:10562800012009B05DF804FB940E002090FB0500F2
:10563800174B1B6813F0070F01D10120704700B505
:1056480089B0144B079302238DF8043000238DF89A
:1056580005308DF806308DF80730019A0692194604
:1056680063F3000163F3410163F3820163F3C5014E
:10567800012262F38811082262F3532163F31F5158
:1056880006AA034806F0D2F9012009B05DF804FB28
:10569800940E0020B4FB0500174B1B6813F0070F8E
:1056A80001D10120704700B589B0144B079302233C
:1056B8008DF8043000238DF805308DF806308DF80C
:1056C8000730019A0692194663F3000163F341011A
:1056D80063F3820163F3C501012262F38811082292
:1056E80062F3532163F31F5106AA034806F09EF99B
:1056F800012009B05DF804FB940E0020D8FB0500DA
:10570800174B1B6813F0070F01D10120704700B534
:1057180089B0144B079302238DF8043000238DF8C9
:1057280005308DF806308DF80730019A0692194633
:1057380063F3000163F3410163F3820163F3C5017D
:10574800012262F38811082262F3532163F31F5187
:1057580006AA034806F06AF9012009B05DF804FBBF
:10576800940E00200CFC0500174B1B6813F0070F64
:1057780001D10120704700B589B0144B079302236B
:105788008DF8043000238DF805308DF806308DF83B
:105798000730019A0692194663F3000163F3410149
:1057A80063F3820163F3C501012262F388110822C1
:1057B80062F3532163F31F5106AA034806F036F932
:1057C800012009B05DF804FB940E002030FC0500B0
:1057D800174B1B6813F0070F01D10120704700B564
:1057E80089B0144B079302238DF8043000238DF8F9
:1057F80005308DF806308DF80730019A0692194663
:1058080063F3000163F3410163F3820163F3C501AC
:10581800012262F38811082262F3532163F31F51B6
:1058280006AA034806F002F9012009B05DF804FB56
:10583800940E002060FC0500B0B582B000AF0A46A7
:10584800C1B22548FFF72EFE18B900200837BD461B
:10585800B0BD0346214A126812F0070F33D06C46D8
:1058680088B0694611F110022FD00C2042B184464D
:10587800042801DD1A4D4D61BCF1080F00DD8B6174
:105888000B2825DD0C233AB10320387100207871EC
:10589800B871F8717868086100216FF300016FF33F
:1058A80041016FF382016FF3C501012060F3881194
:1058B800C3F30A0363F353216FF31F51002307480F
:1058C80006F0B4F8A5460120C0E76FF00040CDE728
:1058D8006FF01B03D7E700BF6CDE0500940E0020B5
:1058E80084FC0500F0B583B000AF4FF0FF324FF0F5
:1058F800FF33244833F060F8044618B920460C37C3
:10590800BD46F0BD204B1B6813F0070FF6D06D465F
:1059180088B06B4613F110022ED00C213AB108461C
:10592800042901DD194E5E61082800DD9C610B2900
:1059380025DD4FF00C0C3AB1032139710021797142
:10594800B971F9717868186100216FF300016FF37C
:1059580041016FF382016FF3C501012363F38811DD
:10596800CCF30A0C6CF353216FF31F510023064844
:1059780006F05CF8AD46C1E76FF00041CEE76FF086
:105988001B0CD8E700BC0020940E0020A8FC0500E2
:10599800F0B583B000AF244833F024F9044618B9B1
:1059A80020460C37BD46F0BD204B1B6813F0070F8F
:1059B800F6D06D4688B06B4613F110022ED00C213C
:1059C8003AB10846042901DD194E5E61082800DD58
:1059D8009C610B2925DD4FF00C0C3AB1032139717C
:1059E80000217971B971F9717868186100216FF334
:1059F80000016FF341016FF382016FF3C5010123C9
:105A080063F38811CCF30A0C6CF353216FF31F5125
:105A18000023064806F00AF8AD46C1E76FF00041DA
:105A2800CEE76FF01B0CD8E700BC0020940E0020D6
:105A3800C4FC0500F0B58BB000AF786C042843D0E7
:105A4800524B1B6813F0070F34D06C4688B06B4676
:105A580013F1100232D00C2142B18C46042901DD29
:105A68004B4D5D61BCF1080F00DD98610B2928DD05
:105A78004FF00C0C3AB10321397000217970B970DC
:105A8800F9703868186100216FF300016FF3410164
:105A98006FF382016FF3C501012363F38811CCF31F
:105AA8000A0363F353216FF31F510023374805F0AE
:105AB800BDFFA54601202C37BD46F0BD6FF0004163
:105AC800CAE76FF01B0CD5E700247C627960BA60E6
